{
  "contractName": "ArbitrablePermissionList",
  "abi": [
    {
      "constant": true,
      "inputs": [],
      "name": "timeToChallenge",
      "outputs": [
        {
          "name": "",
          "type": "uint256"
        }
      ],
      "payable": false,
      "stateMutability": "view",
      "type": "function"
    },
    {
      "constant": true,
      "inputs": [],
      "name": "arbitratorExtraData",
      "outputs": [
        {
          "name": "",
          "type": "bytes"
        }
      ],
      "payable": false,
      "stateMutability": "view",
      "type": "function"
    },
    {
      "constant": true,
      "inputs": [],
      "name": "rechallengePossible",
      "outputs": [
        {
          "name": "",
          "type": "bool"
        }
      ],
      "payable": false,
      "stateMutability": "view",
      "type": "function"
    },
    {
      "constant": false,
      "inputs": [
        {
          "name": "_disputeID",
          "type": "uint256"
        },
        {
          "name": "_ruling",
          "type": "uint256"
        }
      ],
      "name": "rule",
      "outputs": [],
      "payable": false,
      "stateMutability": "nonpayable",
      "type": "function"
    },
    {
      "constant": true,
      "inputs": [],
      "name": "stake",
      "outputs": [
        {
          "name": "",
          "type": "uint256"
        }
      ],
      "payable": false,
      "stateMutability": "view",
      "type": "function"
    },
    {
      "constant": true,
      "inputs": [
        {
          "name": "",
          "type": "uint256"
        }
      ],
      "name": "disputeIDToItem",
      "outputs": [
        {
          "name": "",
          "type": "bytes32"
        }
      ],
      "payable": false,
      "stateMutability": "view",
      "type": "function"
    },
    {
      "constant": true,
      "inputs": [
        {
          "name": "",
          "type": "bytes32"
        }
      ],
      "name": "items",
      "outputs": [
        {
          "name": "status",
          "type": "uint8"
        },
        {
          "name": "lastAction",
          "type": "uint256"
        },
        {
          "name": "submitter",
          "type": "address"
        },
        {
          "name": "challenger",
          "type": "address"
        },
        {
          "name": "balance",
          "type": "uint256"
        },
        {
          "name": "disputed",
          "type": "bool"
        },
        {
          "name": "disputeID",
          "type": "uint256"
        }
      ],
      "payable": false,
      "stateMutability": "view",
      "type": "function"
    },
    {
      "constant": true,
      "inputs": [],
      "name": "appendOnly",
      "outputs": [
        {
          "name": "",
          "type": "bool"
        }
      ],
      "payable": false,
      "stateMutability": "view",
      "type": "function"
    },
    {
      "constant": true,
      "inputs": [],
      "name": "arbitrator",
      "outputs": [
        {
          "name": "",
          "type": "address"
        }
      ],
      "payable": false,
      "stateMutability": "view",
      "type": "function"
    },
    {
      "constant": true,
      "inputs": [],
      "name": "blacklist",
      "outputs": [
        {
          "name": "",
          "type": "bool"
        }
      ],
      "payable": false,
      "stateMutability": "view",
      "type": "function"
    },
    {
      "constant": true,
      "inputs": [
        {
          "name": "",
          "type": "uint256"
        }
      ],
      "name": "itemsList",
      "outputs": [
        {
          "name": "",
          "type": "bytes32"
        }
      ],
      "payable": false,
      "stateMutability": "view",
      "type": "function"
    },
    {
      "inputs": [
        {
          "name": "_arbitrator",
          "type": "address"
        },
        {
          "name": "_arbitratorExtraData",
          "type": "bytes"
        },
        {
          "name": "_metaEvidence",
          "type": "string"
        },
        {
          "name": "_blacklist",
          "type": "bool"
        },
        {
          "name": "_appendOnly",
          "type": "bool"
        },
        {
          "name": "_rechallengePossible",
          "type": "bool"
        },
        {
          "name": "_stake",
          "type": "uint256"
        },
        {
          "name": "_timeToChallenge",
          "type": "uint256"
        }
      ],
      "payable": false,
      "stateMutability": "nonpayable",
      "type": "constructor"
    },
    {
      "anonymous": false,
      "inputs": [
        {
          "indexed": true,
          "name": "submitter",
          "type": "address"
        },
        {
          "indexed": true,
          "name": "challenger",
          "type": "address"
        },
        {
          "indexed": true,
          "name": "value",
          "type": "bytes32"
        },
        {
          "indexed": false,
          "name": "status",
          "type": "uint8"
        },
        {
          "indexed": false,
          "name": "disputed",
          "type": "bool"
        }
      ],
      "name": "ItemStatusChange",
      "type": "event"
    },
    {
      "anonymous": false,
      "inputs": [
        {
          "indexed": true,
          "name": "_arbitrator",
          "type": "address"
        },
        {
          "indexed": true,
          "name": "_disputeID",
          "type": "uint256"
        },
        {
          "indexed": false,
          "name": "_ruling",
          "type": "uint256"
        }
      ],
      "name": "Ruling",
      "type": "event"
    },
    {
      "anonymous": false,
      "inputs": [
        {
          "indexed": true,
          "name": "_metaEvidenceID",
          "type": "uint256"
        },
        {
          "indexed": false,
          "name": "_evidence",
          "type": "string"
        }
      ],
      "name": "MetaEvidence",
      "type": "event"
    },
    {
      "anonymous": false,
      "inputs": [
        {
          "indexed": true,
          "name": "_arbitrator",
          "type": "address"
        },
        {
          "indexed": true,
          "name": "_disputeID",
          "type": "uint256"
        },
        {
          "indexed": false,
          "name": "_metaEvidenceID",
          "type": "uint256"
        }
      ],
      "name": "Dispute",
      "type": "event"
    },
    {
      "anonymous": false,
      "inputs": [
        {
          "indexed": true,
          "name": "_arbitrator",
          "type": "address"
        },
        {
          "indexed": true,
          "name": "_disputeID",
          "type": "uint256"
        },
        {
          "indexed": false,
          "name": "_party",
          "type": "address"
        },
        {
          "indexed": false,
          "name": "_evidence",
          "type": "string"
        }
      ],
      "name": "Evidence",
      "type": "event"
    },
    {
      "constant": false,
      "inputs": [
        {
          "name": "_value",
          "type": "bytes32"
        }
      ],
      "name": "requestRegistration",
      "outputs": [],
      "payable": true,
      "stateMutability": "payable",
      "type": "function"
    },
    {
      "constant": false,
      "inputs": [
        {
          "name": "_value",
          "type": "bytes32"
        }
      ],
      "name": "requestClearing",
      "outputs": [],
      "payable": true,
      "stateMutability": "payable",
      "type": "function"
    },
    {
      "constant": false,
      "inputs": [
        {
          "name": "_value",
          "type": "bytes32"
        }
      ],
      "name": "challengeRegistration",
      "outputs": [],
      "payable": true,
      "stateMutability": "payable",
      "type": "function"
    },
    {
      "constant": false,
      "inputs": [
        {
          "name": "_value",
          "type": "bytes32"
        }
      ],
      "name": "challengeClearing",
      "outputs": [],
      "payable": true,
      "stateMutability": "payable",
      "type": "function"
    },
    {
      "constant": false,
      "inputs": [
        {
          "name": "_value",
          "type": "bytes32"
        }
      ],
      "name": "appeal",
      "outputs": [],
      "payable": true,
      "stateMutability": "payable",
      "type": "function"
    },
    {
      "constant": false,
      "inputs": [
        {
          "name": "_value",
          "type": "bytes32"
        }
      ],
      "name": "executeRequest",
      "outputs": [],
      "payable": false,
      "stateMutability": "nonpayable",
      "type": "function"
    },
    {
      "constant": true,
      "inputs": [
        {
          "name": "_value",
          "type": "bytes32"
        }
      ],
      "name": "isPermitted",
      "outputs": [
        {
          "name": "allowed",
          "type": "bool"
        }
      ],
      "payable": false,
      "stateMutability": "view",
      "type": "function"
    },
    {
      "constant": true,
      "inputs": [],
      "name": "itemsCount",
      "outputs": [
        {
          "name": "count",
          "type": "uint256"
        }
      ],
      "payable": false,
      "stateMutability": "view",
      "type": "function"
    },
    {
      "constant": true,
      "inputs": [],
      "name": "itemsCounts",
      "outputs": [
        {
          "name": "pending",
          "type": "uint256"
        },
        {
          "name": "challenged",
          "type": "uint256"
        },
        {
          "name": "accepted",
          "type": "uint256"
        },
        {
          "name": "rejected",
          "type": "uint256"
        }
      ],
      "payable": false,
      "stateMutability": "view",
      "type": "function"
    },
    {
      "constant": true,
      "inputs": [
        {
          "name": "_cursor",
          "type": "bytes32"
        },
        {
          "name": "_count",
          "type": "uint256"
        },
        {
          "name": "_filter",
          "type": "bool[6]"
        },
        {
          "name": "_sort",
          "type": "bool"
        }
      ],
      "name": "queryItems",
      "outputs": [
        {
          "name": "values",
          "type": "bytes32[]"
        },
        {
          "name": "hasMore",
          "type": "bool"
        }
      ],
      "payable": false,
      "stateMutability": "view",
      "type": "function"
    }
  ],
  "bytecode": "0x60806040523480156200001157600080fd5b5060405162001e4238038062001e428339810160409081528151602080840151928401516060850151608086015160a087015160c088015160e089015160008054600160a060020a031916600160a060020a038a16179055978901805197999098950196939592949193909289918991620000929160019184019062000180565b50505060007f61606860eb6c87306811e2695215385101daab53bd6ab4e9f9049aead9363c7d876040518080602001828103825283818151815260200191508051906020019080838360005b83811015620000f8578181015183820152602001620000de565b50505050905090810190601f168015620001265780820380516001836020036101000a031916815260200191505b509250505060405180910390a26002805460ff19169515159590951761ff001916610100941515949094029390931762ff000019166201000092151592909202919091179092556003919091556004555062000225915050565b828054600181600116156101000203166002900490600052602060002090601f016020900481019282601f10620001c357805160ff1916838001178555620001f3565b82800160010185558215620001f3579182015b82811115620001f3578251825591602001919060010190620001d6565b506200020192915062000205565b5090565b6200022291905b808211156200020157600081556001016200020c565b90565b611c0d80620002356000396000f30060806040526004361061011c5763ffffffff7c01000000000000000000000000000000000000000000000000000000006000350416630689d0ff81146101215780630c7ac7b61461014857806324642510146101d2578063311a6c56146101fb578063342d9a04146102185780633a4b66f114610223578063409c88281461023857806348f343f314610250578063675629fe146102c65780636cc6cde1146102db57806381a1fa021461030c5780638e604b1d1461034757806393519d66146103f5578063a4b5fa5614610400578063b783d6c714610415578063bc16272d14610420578063beabdb7b1461042b578063c2bd9d9514610443578063e2c03ace1461045b578063e9c2416614610470578063ece1de4414610488575b600080fd5b34801561012d57600080fd5b50610136610493565b60408051918252519081900360200190f35b34801561015457600080fd5b5061015d610499565b6040805160208082528351818301528351919283929083019185019080838360005b8381101561019757818101518382015260200161017f565b50505050905090810190601f1680156101c45780820380516001836020036101000a031916815260200191505b509250505060405180910390f35b3480156101de57600080fd5b506101e7610526565b604080519115158252519081900360200190f35b34801561020757600080fd5b50610216600435602435610535565b005b610216600435610591565b34801561022f57600080fd5b506101366109b9565b34801561024457600080fd5b506101366004356109bf565b34801561025c57600080fd5b506102686004356109d1565b6040518088600681111561027857fe5b60ff168152602081019790975250600160a060020a039485166040808801919091529390941660608601526080850191909152151560a084015260c0830191909152519081900360e0019150f35b3480156102d257600080fd5b506101e7610a23565b3480156102e757600080fd5b506102f0610a31565b60408051600160a060020a039092168252519081900360200190f35b34801561031857600080fd5b50610321610a40565b604080519485526020850193909352838301919091526060830152519081900360800190f35b34801561035357600080fd5b506040805160c08181019092526103969160048035926024359236929161010491604490600690839083908082843750939650505050903515159150610b2d9050565b604051808060200183151515158152602001828103825284818151815260200191508051906020019060200280838360005b838110156103e05781810151838201526020016103c8565b50505050905001935050505060405180910390f35b610216600435610df0565b34801561040c57600080fd5b506101e761102e565b610216600435611037565b6102166004356112a2565b34801561043757600080fd5b506101e760043561140c565b34801561044f57600080fd5b50610136600435611477565b34801561046757600080fd5b50610136611496565b34801561047c57600080fd5b5061021660043561149c565b6102166004356115f8565b60045481565b60018054604080516020600284861615610100026000190190941693909304601f8101849004840282018401909252818152929183018282801561051e5780601f106104f35761010080835404028352916020019161051e565b820191906000526020600020905b81548152906001019060200180831161050157829003601f168201915b505050505081565b60025462010000900460ff1681565b600054600160a060020a0316331461054c57600080fd5b604080518281529051839133917f394027a5fa6e098a1191094d1719d6929b9abc535fcc0c8f448d6a4e756222769181900360200190a361058d8282611706565b5050565b60008181526005602090815260408083208354915160e060020a63f7434ea9028152600481019384526001805460028183161561010002600019019091160460248301819052929594600160a060020a039094169363f7434ea99391929091829160440190849080156106455780601f1061061a57610100808354040283529160200191610645565b820191906000526020600020905b81548152906001019060200180831161062857829003601f168201915b505092505050602060405180830381600087803b15801561066557600080fd5b505af1158015610679573d6000803e3d6000fd5b505050506040513d602081101561068f57600080fd5b505160035490915081013410156106a557600080fd5b6005825460ff1660068111156106b757fe5b14806106d257506006825460ff1660068111156106d057fe5b145b15156106dd57600080fd5b600582015460ff16156106ef57600080fd5b600482015481116108aa5760038201805473ffffffffffffffffffffffffffffffffffffffff191633179055600480830180543484900301905560058301805460ff19166001908117909155600054604080517fc13517e100000000000000000000000000000000000000000000000000000000815260029481018581526024820192835284548086161561010002600019011686900460448301819052600160a060020a03949094169563c13517e1958895919490939091606490910190849080156107fd5780601f106107d2576101008083540402835291602001916107fd565b820191906000526020600020905b8154815290600101906020018083116107e057829003601f168201915b505093505050506020604051808303818588803b15801561081d57600080fd5b505af1158015610831573d6000803e3d6000fd5b50505050506040513d602081101561084857600080fd5b5051600680840182815560009283526020918252604080842087905590548354825194855291519093600160a060020a03909216927fc21357d76c2ee05713ed6e2edb9a5f60ab1e8748c56201385df30007f774f58d928290030190a361094a565b6005825460ff1660068111156108bc57fe5b14156108db578154600390839060ff19166001835b02179055506108e4565b815460ff191682555b60028201546004830154604051600160a060020a039092169181156108fc0291906000818181858888f150506000600486018190556040513394503480156108fc029450925090818181858888f19350505050158015610948573d6000803e3d6000fd5b505b42600183015560038201546002830154835460058501546040518794600160a060020a03908116941692600080516020611bc28339815191529260ff918216929116908083600681111561099a57fe5b60ff1681529115156020830152506040805191829003019150a4505050565b60035481565b60066020526000908152604090205481565b6005602081905260009182526040909120805460018201546002830154600384015460048501549585015460069095015460ff948516969395600160a060020a03938416959290931693929091169087565b600254610100900460ff1681565b600054600160a060020a031681565b600080808080805b600754821015610b255760056000600784815481101515610a6557fe5b600091825260208083209091015483528201929092526040019020600581015490915060ff1615610a9b57600190940193610b1a565b6002815460ff166006811115610aad57fe5b1480610ac857506004815460ff166006811115610ac657fe5b145b15610ad857600190950194610b1a565b6003815460ff166006811115610aea57fe5b1415610afb57600190930192610b1a565b6001815460ff166006811115610b0d57fe5b1415610b1a576001909201915b600190910190610a48565b505090919293565b606060008060008060008089604051908082528060200260200182016040528015610b62578160200160208202803883390190505b509650600093508a1515610b795760009450610bca565b600092505b600754831015610bbe57600780548c919085908110610b9957fe5b6000918252602090912001541415610bb357829450610bbe565b600190920191610b7e565b841515610bca57600080fd5b8415610bed5787610be357600754859003600101610be8565b846001015b610c00565b87610bf9576001610bfc565b60005b60ff165b91505b87610c1357600754821115610c19565b60075482105b15610de2576005600060078a610c3457600754859003610c36565b845b81548110610c4057fe5b6000918252602080832090910154835282019290925260400181209150815460ff166006811115610c6d57fe5b14158015610c8b57506006815460ff166006811115610c8857fe5b14155b8015610d75575088518015610cc857506002815460ff166006811115610cad57fe5b1480610cc857506004815460ff166006811115610cc657fe5b145b80610ce3575060208901518015610ce35750600581015460ff165b80610d09575060408901518015610d0957506003815460ff166006811115610d0757fe5b145b80610d2f575060608901518015610d2f57506001815460ff166006811115610d2d57fe5b145b80610d52575060808901518015610d5257506002810154600160a060020a031633145b80610d75575060a08901518015610d7557506003810154600160a060020a031633145b15610dd75789841015610dce57600788610d9457600754839003610d96565b825b81548110610da057fe5b90600052602060002001548785815181101515610db957fe5b60209081029091010152600190930192610dd7565b60019550610de2565b600190910190610c03565b505050505094509492505050565b60008181526005602090815260408083208354915160e060020a63f7434ea9028152600481019384526001805460028183161561010002600019019091160460248301819052929594600160a060020a039094169363f7434ea9939192909182916044019084908015610ea45780601f10610e7957610100808354040283529160200191610ea4565b820191906000526020600020905b815481529060010190602001808311610e8757829003601f168201915b505092505050602060405180830381600087803b158015610ec457600080fd5b505af1158015610ed8573d6000803e3d6000fd5b505050506040513d6020811015610eee57600080fd5b5051600254909150610100900460ff1615610f0857600080fd5b6003548101341015610f1957600080fd5b6003825460ff166006811115610f2b57fe5b1415610f4a578154600590839060ff19166001835b0217905550610f75565b6000825460ff166006811115610f5c57fe5b141561011c578154600690839060ff1916600183610f40565b60018201541515610fb657600780546001810182556000919091527fa66cc928b5edb82af9bd49922954155ab7b0942694bea4ce44661d9a8736c688018390555b60028201805473ffffffffffffffffffffffffffffffffffffffff1916331790819055600483018054340190554260018401556003830154835460058501546040518794600160a060020a03948516941692600080516020611bc28339815191529260ff918216929116908083600681111561099a57fe5b60025460ff1681565b60008181526005602090815260408083208354915160e060020a63f7434ea9028152600481019384526001805460028183161561010002600019019091160460248301819052929594600160a060020a039094169363f7434ea99391929091829160440190849080156110eb5780601f106110c0576101008083540402835291602001916110eb565b820191906000526020600020905b8154815290600101906020018083116110ce57829003601f168201915b505092505050602060405180830381600087803b15801561110b57600080fd5b505af115801561111f573d6000803e3d6000fd5b505050506040513d602081101561113557600080fd5b5051600354909150810134101561114b57600080fd5b6002825460ff16600681111561115d57fe5b148061117857506004825460ff16600681111561117657fe5b145b151561118357600080fd5b600582015460ff161561119557600080fd5b600482015481116112785760038201805473ffffffffffffffffffffffffffffffffffffffff191633179055600480830180543484900301905560058301805460ff19166001908117909155600054604080517fc13517e100000000000000000000000000000000000000000000000000000000815260029481018581526024820192835284548086161561010002600019011686900460448301819052600160a060020a03949094169563c13517e1958895919490939091606490910190849080156107fd5780601f106107d2576101008083540402835291602001916107fd565b6002825460ff16600681111561128a57fe5b14156108db578154600190839060ff191682806108d1565b60008181526005602090815260408083208354915160e060020a63f7434ea9028152600481019384526001805460028183161561010002600019019091160460248301819052929594600160a060020a039094169363f7434ea99391929091829160440190849080156113565780601f1061132b57610100808354040283529160200191611356565b820191906000526020600020905b81548152906001019060200180831161133957829003601f168201915b505092505050602060405180830381600087803b15801561137657600080fd5b505af115801561138a573d6000803e3d6000fd5b505050506040513d60208110156113a057600080fd5b505160035490915081013410156113b657600080fd5b6000825460ff1660068111156113c857fe5b14156113e1578154600490839060ff1916600183610f40565b6001825460ff1660068111156113f357fe5b141561011c578154600290839060ff1916600183610f40565b6000818152600560205260408120816002825460ff16600681111561142d57fe5b11158061145957506006825460ff16600681111561144757fe5b1480156114595750600582015460ff16155b60025490915060ff1661146d57801561146f565b805b949350505050565b600780548290811061148557fe5b600091825260209091200154905081565b60075490565b60008181526005602052604090206004546001820154420310156114bf57600080fd5b600581015460ff16156114d157600080fd5b6002815460ff1660068111156114e357fe5b14806114fe57506004815460ff1660068111156114fc57fe5b145b1561151c578054600390829060ff19166001835b0217905550611560565b6005815460ff16600681111561152e57fe5b148061154957506006815460ff16600681111561154757fe5b145b1561011c578054600190829060ff19168280611512565b60028101546004820154604051600160a060020a039092169181156108fc0291906000818181858888f1505050506003820154600283015483546005850154604051879550600160a060020a039485169490931692600080516020611bc28339815191529260ff908116921690808360068111156115da57fe5b60ff1681529115156020830152506040805191829003019150a45050565b6000818152600560205260408082209154600683015482517f49912f8800000000000000000000000000000000000000000000000000000000815260048101828152602482019485526001805460028183161561010002600019019091160460448401819052600160a060020a03909516956349912f889534959492939260640190849080156116c95780601f1061169e576101008083540402835291602001916116c9565b820191906000526020600020905b8154815290600101906020018083116116ac57829003601f168201915b505093505050506000604051808303818588803b1580156116e957600080fd5b505af11580156116fd573d6000803e3d6000fd5b50505050505050565b6000828152600660209081526040808320548352600591829052822090810154909190819060ff16151561173957600080fd5b60018414156119705760025462010000900460ff16801561176957506004835460ff16600681111561176757fe5b145b156118bf5760005460405160e060020a63f7434ea90281526020600482019081526001805460026000198284161561010002019091160460248401819052600160a060020a039094169363f7434ea9939192918291604490910190849080156118135780601f106117e857610100808354040283529160200191611813565b820191906000526020600020905b8154815290600101906020018083116117f657829003601f168201915b505092505050602060405180830381600087803b15801561183357600080fd5b505af1158015611847573d6000803e3d6000fd5b505050506040513d602081101561185d57600080fd5b5051600484015460035491935090830110156118ba57506003546004830154600284015460405192840190910391600160a060020a039091169082156108fc029083906000818181858888f1505050600485018054849003905550505b61196b565b6002835460ff1660068111156118d157fe5b14806118ec57506004835460ff1660068111156118ea57fe5b145b156119265760028301546004840154604051600160a060020a039092169181156108fc0291906000818181858888f1935050505050611956565b60038301546004840154604051600160a060020a039092169181156108fc0291906000818181858888f150505050505b8254600390849060ff19166001835b02179055505b611aea565b6002841415611a22576006835460ff16600681111561198b57fe5b14806119a657506005835460ff1660068111156119a457fe5b145b156119e05760028301546004840154604051600160a060020a039092169181156108fc0291906000818181858888f1935050505050611a10565b60038301546004840154604051600160a060020a039092169181156108fc0291906000818181858888f150505050505b8254600190849060ff19168280611965565b6002835460ff166006811115611a3457fe5b1415611a52578254600190849060ff191682805b0217905550611a86565b6005835460ff166006811115611a6457fe5b1415611a7d578254600390849060ff1916600183611a48565b825460ff191683555b6002838101546004850154604051600160a060020a0390921692900480156108fc02916000818181858888f15050505060038401546004850154604051600160a060020a0390921692506002900480156108fc02916000818181858888f150505050505b60058301805460ff1916905560025462010000900460ff168015611b1d57506004835460ff166006811115611b1b57fe5b145b8015611b295750600184145b15611b3957426001840155611b41565b600060048401555b60008581526006602081905260409182902054600386015460028701548754600589015495519395600160a060020a03938416959290931693600080516020611bc28339815191529360ff9283169392169181908490811115611ba057fe5b60ff1681529115156020830152506040805191829003019150a450505050505600a4beab79462e336293c2f229498d5942d3b4642806ab2820d6b7846d42d7e21aa165627a7a72305820aae29a95267dc4ca28e2078f63992344c030e18635e031c8c37b22a6ca793ef10029",
  "source": " /**\n *  @title Arbitrable Permission List\n *  @author Clment Lesaege - <clement@lesaege.com>\n *  This code hasn't undertaken bug bounty programs yet.\n */\n\npragma solidity ^0.4.23;\n\nimport \"../arbitration/Arbitrable.sol\";\nimport \"./PermissionInterface.sol\";\n\n/**\n *  @title Arbitrable Permission List\n *  @dev This is an arbitrator curated registry. Anyone can post an item with a deposit. If no one complains within a defined time period, the item is added to the registry.\n *  Anyone can complain and also post a deposit. If someone does, a dispute is created. The winner of the dispute gets the deposit of the other party and the item is added or removed accordingly.\n *  To make a request, parties have to deposit a stake and the arbitration fees. If the arbitration fees change between the submitter's payment and the challenger's payment, a part of the submitter stake can be used as an arbitration fee deposit.\n *  In case the arbitrator refuses to rule, the item is put in the initial absent status and the balance is split equally between parties.\n */\ncontract ArbitrablePermissionList is PermissionInterface, Arbitrable {\n    /* Enums */\n\n    enum ItemStatus {\n        Absent, // The item has never been submitted.\n        Cleared, // The item has been submitted and the dispute resolution process determined it should not be added or a clearing request has been submitted and not contested.\n        Resubmitted, // The item has been cleared but someone has resubmitted it.\n        Registered, // The item has been submitted and the dispute resolution process determined it should be added or the submission was never contested.\n        Submitted, // The item has been submitted.\n        ClearingRequested, // The item is registered, but someone has requested to remove it.\n        PreventiveClearingRequested // The item has never been registered, but someone asked to clear it preemptively to avoid it being shown as not registered during the dispute resolution process.\n    }\n\n    /* Structs */\n\n    struct Item {\n        ItemStatus status; // Status of the item.\n        uint lastAction; // Time of the last action.\n        address submitter; // Address of the submitter of the item status change request, if any.\n        address challenger; // Address of the challenger, if any.\n        uint balance; // The total amount of funds to be given to the winner of a potential dispute. Includes stake and reimbursement of arbitration fees.\n        bool disputed; // True if a dispute is taking place.\n        uint disputeID; // ID of the dispute, if any.\n    }\n\n    /* Events */\n\n    /**\n     *  @dev Called when the item's status changes or when it is contested/resolved.\n     *  @param submitter Address of the submitter, if any.\n     *  @param challenger Address of the challenger, if any.\n     *  @param value The value of the item.\n     *  @param status The status of the item.\n     *  @param disputed The item is being disputed.\n     */\n    event ItemStatusChange(\n        address indexed submitter,\n        address indexed challenger,\n        bytes32 indexed value,\n        ItemStatus status,\n        bool disputed\n    );\n\n    /* Storage */\n\n    // Settings\n    bool public blacklist; // True if the list should function as a blacklist, false if it should function as a whitelist.\n    bool public appendOnly; // True if the list should be append only.\n    bool public rechallengePossible; // True if items winning their disputes can be challenged again.\n    uint public stake; // The stake to put to submit/clear/challenge and item in addition of arbitration fees.\n    uint public timeToChallenge; // The time before which an action is executable if not challenged.\n\n    // Ruling Options\n    uint8 constant REGISTER = 1;\n    uint8 constant CLEAR = 2;\n\n    // Items\n    mapping(bytes32 => Item) public items;\n    mapping(uint => bytes32) public disputeIDToItem;\n    bytes32[] public itemsList;\n\n    /* Constructor */\n\n    /**\n     *  @dev Constructs the arbitrable permission list and sets the type.\n     *  @param _arbitrator The chosen arbitrator.\n     *  @param _arbitratorExtraData Extra data for the arbitrator contract.\n     *  @param _metaEvidence The URL of the meta evidence object.\n     *  @param _blacklist True if the list should function as a blacklist, false if it should function as a whitelist.\n     *  @param _appendOnly True if the list should be append only.\n     *  @param _rechallengePossible True if it is possible to challenge again a submission which has won a dispute.\n     *  @param _stake The amount in Weis of deposit required for a submission or a challenge in addition of the arbitration fees.\n     *  @param _timeToChallenge The time in seconds, other parties have to challenge.\n     */\n    constructor(\n        Arbitrator _arbitrator,\n        bytes _arbitratorExtraData,\n        string _metaEvidence,\n        bool _blacklist,\n        bool _appendOnly,\n        bool _rechallengePossible,\n        uint _stake,\n        uint _timeToChallenge) Arbitrable(_arbitrator, _arbitratorExtraData) public {\n        emit MetaEvidence(0, _metaEvidence);\n        blacklist = _blacklist;\n        appendOnly = _appendOnly;\n        rechallengePossible = _rechallengePossible;\n        stake = _stake;\n        timeToChallenge = _timeToChallenge;\n    }\n\n    /* Public */\n\n    /**\n     *  @dev Request for an item to be registered.\n     *  @param _value The value of the item to register.\n     */\n    function requestRegistration(bytes32 _value) public payable {\n        Item storage item = items[_value];\n        uint arbitratorCost = arbitrator.arbitrationCost(arbitratorExtraData);\n        require(msg.value >= stake + arbitratorCost);\n\n        if (item.status == ItemStatus.Absent)\n            item.status = ItemStatus.Submitted;\n        else if (item.status == ItemStatus.Cleared)\n            item.status = ItemStatus.Resubmitted;\n        else\n            revert(); // If the item is neither Absent nor Cleared, it is not possible to request registering it.\n\n        if (item.lastAction == 0) {\n            itemsList.push(_value);\n        }\n\n        item.submitter = msg.sender;\n        item.balance += msg.value;\n        item.lastAction = now;\n\n        emit ItemStatusChange(item.submitter, item.challenger, _value, item.status, item.disputed);\n    }\n\n    /**\n     *  @dev Request an item to be cleared.\n     *  @param _value The value of the item to clear.\n     */\n    function requestClearing(bytes32 _value) public payable {\n        Item storage item = items[_value];\n        uint arbitratorCost = arbitrator.arbitrationCost(arbitratorExtraData);\n        require(!appendOnly);\n        require(msg.value >= stake + arbitratorCost);\n\n        if (item.status == ItemStatus.Registered)\n            item.status = ItemStatus.ClearingRequested;\n        else if (item.status == ItemStatus.Absent)\n            item.status = ItemStatus.PreventiveClearingRequested;\n        else\n            revert(); // If the item is neither Registered nor Absent, it is not possible to request clearing it.\n        \n        if (item.lastAction == 0) {\n            itemsList.push(_value);\n        }\n\n        item.submitter = msg.sender;\n        item.balance += msg.value;\n        item.lastAction = now;\n\n        emit ItemStatusChange(item.submitter, item.challenger, _value, item.status, item.disputed);\n    }\n\n    /**\n     *  @dev Challenge a registration request.\n     *  @param _value The value of the item subject to the registering request.\n     */\n    function challengeRegistration(bytes32 _value) public payable {\n        Item storage item = items[_value];\n        uint arbitratorCost = arbitrator.arbitrationCost(arbitratorExtraData);\n        require(msg.value >= stake + arbitratorCost);\n        require(item.status == ItemStatus.Resubmitted || item.status == ItemStatus.Submitted);\n        require(!item.disputed);\n\n        if (item.balance >= arbitratorCost) { // In the general case, create a dispute.\n            item.challenger = msg.sender;\n            item.balance += msg.value-arbitratorCost;\n            item.disputed = true;\n            item.disputeID = arbitrator.createDispute.value(arbitratorCost)(2,arbitratorExtraData);\n            disputeIDToItem[item.disputeID] = _value;\n            emit Dispute(arbitrator, item.disputeID, 0);\n        } else { // In the case the arbitration fees increased so much that the deposit of the requester is not high enough. Cancel the request.\n            if (item.status == ItemStatus.Resubmitted)\n                item.status = ItemStatus.Cleared;\n            else\n                item.status = ItemStatus.Absent;\n\n            item.submitter.send(item.balance); // Deliberate use of send in order to not block the contract in case of reverting fallback.\n            item.balance = 0;\n            msg.sender.transfer(msg.value);\n        }\n\n        item.lastAction = now;\n\n        emit ItemStatusChange(item.submitter, item.challenger, _value, item.status, item.disputed);\n    }\n\n    /**\n     *  @dev Challenge a clearing request.\n     *  @param _value The value of the item subject to the clearing request.\n     */\n    function challengeClearing(bytes32 _value) public payable {\n        Item storage item = items[_value];\n        uint arbitratorCost = arbitrator.arbitrationCost(arbitratorExtraData);\n        require(msg.value >= stake + arbitratorCost);\n        require(item.status == ItemStatus.ClearingRequested || item.status == ItemStatus.PreventiveClearingRequested);\n        require(!item.disputed);\n\n        if (item.balance >= arbitratorCost) { // In the general case, create a dispute.\n            item.challenger = msg.sender;\n            item.balance += msg.value-arbitratorCost;\n            item.disputed = true;\n            item.disputeID = arbitrator.createDispute.value(arbitratorCost)(2,arbitratorExtraData);\n            disputeIDToItem[item.disputeID] = _value;\n            emit Dispute(arbitrator, item.disputeID, 0);\n        } else { // In the case the arbitration fees increased so much that the deposit of the requester is not high enough. Cancel the request.\n            if (item.status == ItemStatus.ClearingRequested)\n                item.status = ItemStatus.Registered;\n            else\n                item.status = ItemStatus.Absent;\n\n            item.submitter.send(item.balance); // Deliberate use of send in order to not block the contract in case of reverting fallback.\n            item.balance = 0;\n            msg.sender.transfer(msg.value);\n        }\n\n        item.lastAction = now;\n\n        emit ItemStatusChange(item.submitter, item.challenger, _value, item.status, item.disputed);\n    }\n\n    /**\n     *  @dev Appeal ruling. Anyone can appeal to prevent a malicious actor from challenging its own submission and loosing on purpose.\n     *  @param _value The value of the item with the dispute to appeal on.\n     */\n    function appeal(bytes32 _value) public payable {\n        Item storage item = items[_value];\n        arbitrator.appeal.value(msg.value)(item.disputeID,arbitratorExtraData); // Appeal, no need to check anything as the arbitrator does it.\n    }\n\n    /**\n     *  @dev Execute a request after the time for challenging it has passed. Can be called by anyone.\n     *  @param _value The value of the item with the request to execute.\n     */\n    function executeRequest(bytes32 _value) public {\n        Item storage item = items[_value];\n        require(now - item.lastAction >= timeToChallenge);\n        require(!item.disputed);\n\n        if (item.status == ItemStatus.Resubmitted || item.status == ItemStatus.Submitted)\n            item.status = ItemStatus.Registered;\n        else if (item.status == ItemStatus.ClearingRequested || item.status == ItemStatus.PreventiveClearingRequested)\n            item.status = ItemStatus.Cleared;\n        else\n            revert();\n\n        item.submitter.send(item.balance); // Deliberate use of send in order to not block the contract in case of reverting fallback.\n\n        emit ItemStatusChange(item.submitter, item.challenger, _value, item.status, item.disputed);\n    }\n\n    /* Public Views */\n\n    /**\n     *  @dev Return true if the item is allowed. \n     *  We consider the item to be in the list if its status is contested and it has not won a dispute previously.\n     *  @param _value The value of the item to check.\n     *  @return allowed True if the item is allowed, false otherwise.\n     */\n    function isPermitted(bytes32 _value) public view returns (bool allowed) {\n        Item storage item = items[_value];\n        bool _excluded = item.status <= ItemStatus.Resubmitted ||\n            (item.status == ItemStatus.PreventiveClearingRequested && !item.disputed);\n        return blacklist ? _excluded : !_excluded; // Items excluded from blacklist should return true.\n    }\n\n    /* Internal */\n\n    /**\n     *  @dev Execute the ruling of a dispute.\n     *  @param _disputeID ID of the dispute in the Arbitrator contract.\n     *  @param _ruling Ruling given by the arbitrator. Note that 0 is reserved for \"Not able/wanting to make a decision\".\n     */\n    function executeRuling(uint _disputeID, uint _ruling) internal {\n        Item storage item = items[disputeIDToItem[_disputeID]];\n        require(item.disputed);\n\n        if (_ruling == REGISTER) {\n            if (rechallengePossible && item.status==ItemStatus.Submitted) {\n                uint arbitratorCost = arbitrator.arbitrationCost(arbitratorExtraData);\n                if (arbitratorCost + stake < item.balance) { // Check that the balance is enough.\n                    uint toSend = item.balance - (arbitratorCost + stake);\n                    item.submitter.send(toSend); // Keep the arbitration cost and the stake and send the remaining to the submitter.\n                    item.balance -= toSend;\n                }\n            } else {\n                if (item.status==ItemStatus.Resubmitted || item.status==ItemStatus.Submitted)\n                    item.submitter.send(item.balance); // Deliberate use of send in order to not block the contract in case of reverting fallback.\n                else\n                    item.challenger.send(item.balance);\n                    \n                item.status = ItemStatus.Registered;\n            }\n        } else if (_ruling == CLEAR) {\n            if (item.status == ItemStatus.PreventiveClearingRequested || item.status == ItemStatus.ClearingRequested)\n                item.submitter.send(item.balance);\n            else\n                item.challenger.send(item.balance);\n\n            item.status = ItemStatus.Cleared;\n        } else { // Split the balance 50-50 and give the item the initial status.\n            if (item.status==ItemStatus.Resubmitted)\n                item.status = ItemStatus.Cleared;\n            else if (item.status==ItemStatus.ClearingRequested)\n                item.status = ItemStatus.Registered;\n            else\n                item.status = ItemStatus.Absent;\n            item.submitter.send(item.balance / 2);\n            item.challenger.send(item.balance / 2);\n        }\n        \n        item.disputed = false;\n        if (rechallengePossible && item.status==ItemStatus.Submitted && _ruling==REGISTER) \n            item.lastAction=now; // If the item can be rechallenged, update the time and keep the remaining balance.\n        else\n            item.balance = 0;\n\n        emit ItemStatusChange(item.submitter, item.challenger, disputeIDToItem[_disputeID], item.status, item.disputed);\n    }\n\n    /* Interface Views */\n\n    /**\n     *  @dev Return the number of items in the list.\n     *  @return The number of items in the list.\n     */\n    function itemsCount() public view returns (uint count) {\n        count = itemsList.length;\n    }\n\n    /**\n     *  @dev Return the numbers of items in the list per status.\n     *  @return The numbers of items in the list per status.\n     */\n    function itemsCounts() public view returns (uint pending, uint challenged, uint accepted, uint rejected) {\n        for (uint i = 0; i < itemsList.length; i++) {\n            Item storage item = items[itemsList[i]];\n            if (item.disputed) challenged++;\n            else if (item.status == ItemStatus.Resubmitted || item.status == ItemStatus.Submitted) pending++;\n            else if (item.status == ItemStatus.Registered) accepted++;\n            else if (item.status == ItemStatus.Cleared) rejected++;\n        }\n    }\n\n    /**\n     *  @dev Return the values of the items the query finds.\n     *  This function is O(n) at worst, where n is the number of items. This could exceed the gas limit, therefore this function should only be used for interface display and not by other contracts.\n     *  @param _cursor The pagination cursor.\n     *  @param _count The number of items to return.\n     *  @param _filter The filter to use.\n     *  @param _sort The sort order to use.\n     *  @return The values of the items found and wether there are more items for the current filter and sort.\n     */\n    function queryItems(bytes32 _cursor, uint _count, bool[6] _filter, bool _sort) public view returns (bytes32[] values, bool hasMore) {\n        uint _cursorIndex;\n        values = new bytes32[](_count);\n        uint _index = 0;\n\n        if (_cursor == 0)\n            _cursorIndex = 0;\n        else {\n            for (uint j = 0; j < itemsList.length; j++) {\n                if (itemsList[j] == _cursor) {\n                    _cursorIndex = j;\n                    break;\n                }\n            }\n            require(_cursorIndex != 0);\n        }\n\n        for (\n                uint i = _cursorIndex == 0 ? (_sort ? 0 : 1) : (_sort ? _cursorIndex + 1 : itemsList.length - _cursorIndex + 1);\n                _sort ? i < itemsList.length : i <= itemsList.length;\n                i++\n            ) { // Oldest or newest first\n            Item storage item = items[itemsList[_sort ? i : itemsList.length - i]];\n            if (\n                item.status != ItemStatus.Absent && item.status != ItemStatus.PreventiveClearingRequested && (\n                    (_filter[0] && (item.status == ItemStatus.Resubmitted || item.status == ItemStatus.Submitted)) || // Pending\n                    (_filter[1] && item.disputed) || // Challenged\n                    (_filter[2] && item.status == ItemStatus.Registered) || // Accepted\n                    (_filter[3] && item.status == ItemStatus.Cleared) || // Rejected\n                    (_filter[4] && item.submitter == msg.sender) || // My Submissions\n                    (_filter[5] && item.challenger == msg.sender) // My Challenges\n                )\n            ) {\n                if (_index < _count) {\n                    values[_index] = itemsList[_sort ? i : itemsList.length - i];\n                    _index++;\n                } else {\n                    hasMore = true;\n                    break;\n                }\n            }\n        }\n    }\n}",
  "sourcePath": "/Users/epiqueras/Work/kleros/kleros-interaction/contracts/standard/permission/ArbitrablePermissionList.sol",
  "compiler": {
    "name": "solc",
    "version": "0.4.24+commit.e67f0147.Emscripten.clang"
  },
  "schemaVersion": "2.0.1",
  "updatedAt": "2018-08-10T20:41:18.581Z"
}